S01D00005B746B696D3035385D5F6C61625B637573746F6D5D2E737265631C
S113000065C0000080C000007EC000007CC000000D
S11300107AC0000078C0000076C0000074C0000000
S113002072C0000070C000006EC000006CC0000010
S11300306AC00000F8C0000066C0000064C0000090
S113004062C0000060C000005EC000005CC0000030
S11300505AC0000058C0000056C0000054C0000040
S113006052C0000050C000004EC000004CC0000050
S11300704AC0000048C0000046C0000044C0000060
S113008042C0000040C000003EC000006C01970167
S1130090B101CD01D101E301EE01FA01FE01020239
S11300A01802210225022F0233023D024F02600290
S11300B06302700202037F0286028D02AE02CF0247
S11300C00203E1020203ED020203000311241FBE36
S11300D0CFEFD0E4DEBFCDBF11E0A0E0B1E0EAEEA7
S11300E0FFE000E00BBF02C007900D92A43FB107F0
S11300F0D9F722E0A4EFB1E001C01D92A831B20704
S1130100E1F706D770C77CCF181619065CF008957E
S1130110000021503109E1F74F5F5F4F84179507C5
S113012019F4089540E050E027E033E0F1CF5E9801
S113013088B95F9A00005F9882E090E0E5CF089567
S113014081E0F5CF0895813118F48158F0CF0895F6
S11301508155EDCF089584E690E0D6DF88E3E7DFAC
S113016086E0E5DF8FE0E3DF81E0E1DF8AE090E035
S1130170CBCF08955E9A88B95F9A00005F9881E0BA
S113018090E0C2CF08950F931F93CF93DF93182F5E
S1130190EB01D6DF8881882351F001E0010F812F24
S11301A0D2DF8991E7DF102F88818111F6CFDF91AB
S11301B0CF911F910F91089588E4B9DF8CE0DADFC5
S11301C08CE0D8DF8FE0D6DF8FE0D4DF8FE0D2DFA2
S11301D08EE0D0DF80E0CEDF80E0CCCF08958BE0EE
S11301E0809381008DE790E090938900809388004C
S11301F082E080936F0010928500109284008091B9
S1130200250190912601A0912701B09128018093A6
S11302100D0290930E02A0930F02B09310028FB7B9
S113022080688FBF08951F920F920FB60F9211240A
S11302308F939F93AF93BF9380910D0290910E0281
S1130240A0910F02B09110020197A109B109809306
S11302500D0290930E02A0930F02B0931002892B0B
S11302608A2B8B2B99F481E080930C0280912501D9
S113027090912601A0912701B091280180930D024D
S113028090930E02A0930F02B0931002BF91AF910E
S11302909F918F910F900FBE0F901F9018956093B0
S11302A02501709326018093270190932801609380
S11302B00D0270930E0280930F0290931002089522
S11302C0E09117028E2F90E08031910508F0DDC097
S11302D0FC01EA5BFF4F58C6809112028F7169F4EA
S11302E01092070210920802109206021092050260
S11302F01092040210921702D2C0813039F4809314
S113030008021092070280931702DAC0823041F487
S113031081E0809307021092080280931702D0C0F4
S1130320843009F0BCC08AE080931702089580915C
S113033012028F7191F0813029F480930802109297
S1130340070207C0823029F481E0809307021092EB
S1130350080281E080931702B3C082E08093170201
S1130360B2C0809112028F7109F4ADC0813049F49A
S113037082E08093060283E08093170210920A02BF
S1130380AFC0823009F09FC081E08093060283E011
S11303908093170210920A02A3C084E0809317028C
S11303A0089580910302811106C08091020288237E
S11303B009F428C104C085E080931702A0C086E038
S11303C080931702A3C080910502873019F48093AB
S11303D01702A3C084E08093170208958091040259
S11303E0873021F488E080931702B8C084E08093BA
S11303F01702089589E080931702D1C089E08093A1
S11304001702CDC0109207021092080280910002D8
S1130410909101028035934C39F4109201021092AC
S11304200002109217023BC089E080931702B7C004
S1130430809112028F7109F0E5C08BE0809317025E
S1130440C0C08CE0809317020895809112028F71CE
S1130450843009F0D7C08DE080931702BEC08EE0CF
S1130460809317020895809112028F71843009F0ED
S1130470C9C08FE080931702C3C0809112028F71AC
S113048009F0BEC0109217020AC08E2F90E080318E
S1130490910508F0B7C0FC01EA5AFF4F75C51092E8
S11304A00B021092090280910A028111ABC048DE4E
S11304B069E271E081E067DE81E080930A020895D9
S11304C010920A02089580910A0281119BC038DEBD
S11304D062E471E081E057DE81E080930A020895CE
S11304E081E08093090280910A0281118BC061E648
S11304F071E081E048DE81E080930A02089584E19E
S113050022DE80910502805D35CE08958FE11BDEE9
S113051080910402805D2ECE0895109207021092FD
S113052008021092090261E871E081E02CDE8DE19D
S11305300ADE81E01FDE80E090E02FD5BC016F5F12
S11305407F4F80E090E02ED583E090E026D5BC017B
S11305506F5F7F4F83E090E025C5089510920702F6
S113056010920802109209026FE971E081E00BDE3B
S11305708DE1E9DD81E0FEDD80E090E00ED5BC0197
S11305806F5F7F4F80E090E00DD585E090E005D56A
S1130590BC016F5F7F4F85E090E004C50895109221
S11305A007021092080210920902809100029091B1
S11305B001020196909301028093000210920A02B4
S11305C008956DEB71E081E0DEDD8BE1BCDD80E060
S11305D090E0E3D4805DCECD089569ED71E081E0D3
S11305E0D2DD86E0B0DD83E090E0D7D4805DC2DD6B
S11305F08FE0A9DD85E090E0D0D4805DBBCD089587
S113060010920A020895809113028130F9F028F0C3
S1130610823039F1833081F13AC08091090281112D
S113062011C08091FE019091FF0180319742B9F58C
S113063083E0809302011092FF011092FE01109258
S113064013022DC081E08093130242C080910902FD
S1130650811103C01092130222C082E0809313021E
S113066042C080910902811103C01092130217C085
S113067083E08093130242C080910902811103C078
S1130680109213020CC081E08093130221C08130C8
S1130690F9F028F0823039F18330F1F52FC08091E0
S11306A0FE019091FF0101969093FF018093FE015A
S11306B0E0910201F0E0E15EFE4F808182B98EE7B5
S11306C085B98EEF80931D018FE7809315010895FE
S11306D0E0911E01F0E0E15EFE4F808182B98091DD
S11306E01D0185B90895E0911601F0E0E95EFE4F21
S11306F0808182B98091150185B90895E091040142
S1130700F0E0E35FFE4F808182B9E0910301F0E005
S1130710EB5FFE4F808185B9089580911602823087
S113072071F128F4882341F0813079F03BC08330A3
S113073051F1843061F136C080910902882309F4B3
S11307403EC081E0809316023FC080910902882355
S113075099F080911202982F9370B1F19330A1F126
S113076080FF04C082E08093160233C081FF2CC056
S113077083E08093160235C01092160220C084E0F4
S11307808093160236C084E08093160232C08091B2
S1130790FC019091FD018031974259F581E08093ED
S11307A0160212C08230A9F028F4882341F0813067
S11307B049F50AC08330A9F0843021F51AC010929B
S11307C0FD011092FC0108951092FD011092FC01AC
S11307D0089580911E018530A8F48F5F80931E01D7
S11307E0089580911E01882369F0815080931E0131
S11307F008958091FC019091FD0101969093FD0173
S11308008093FC010895809114028230D9F128F478
S1130810882341F08130C1F048C08330B9F184307D
S1130820C9F143C080910902882309F44BC0809127
S11308300702882309F446C080910802811142C04E
S113084081E08093140243C080910902811103C0A6
S11308501092140237C0809107028823C1F180915D
S11308601202982F9C7099F19C3089F182FF04C088
S113087082E08093140230C083FF29C083E0809318
S1130880140232C084E08093140236C084E0809362
S1130890140232C08091FA019091FB018031974299
S11308A059F581E08093140212C08230A9F028F433
S11308B0882341F0813049F50AC08330A9F084309F
S11308C021F51AC01092FB011092FA0108951092BA
S11308D0FB011092FA010895809116018530A8F465
S11308E08F5F80931601089580911601882369F023
S11308F081508093160108958091FA019091FB0133
S113090001969093FB018093FA010895809111025E
S11309108230C1F128F4882341F08130C1F045C010
S11309208330A1F18430B1F140C080910902882361
S113093009F448C080910802882309F443C08091D7
S1130940070281113FC081E08093110240C0809171
S11309500902811103C01092140239C08091080267
S11309608823A9F19091040180911601981720F42D
S113097083E08093110238C0891748F582E08093A0
S113098011022AC084E08093110236C084E080936F
S1130990110232C08091F8019091F901883D994586
S11309A059F581E08093110212C08230A9F028F435
S11309B0882341F0813049F50AC08330A9F084309E
S11309C021F51AC01092F9011092F80108951092BD
S11309D0F9011092F8010895809116018530A8F468
S11309E08F5F80931601089580911601882369F022
S11309F081508093160108958091F8019091F90136
S1130A0001969093F9018093F8010895809115025D
S1130A108230F9F028F4882341F0813079F068C0FD
S1130A20833019F18430D9F163C08091090288239D
S1130A3009F46FC081E08093150270C080910902AF
S1130A40811103C01092150264C082E080931502E4
S1130A50ADC08091F4019091F5018031974209F085
S1130A60A5C083E080931502AFC01092F5011092E7
S1130A70F40180910301811106C081E08093020298
S1130A80809315024BC0873031F481E080930302D8
S1130A90809315025FC084E0809315022FC24091B9
S1130AA006028CE49DE1489F9001499F300D11247A
S1130AB08091F6019091F7012817390709F01EC2B9
S1130AC01092F7011092F60180910302882321F01D
S1130AD081E0809315023EC080910202882321F0B8
S1130AE081E0809315021EC083E0809315026CC0E0
S1130AF0823009F45BC030F4882359F0813009F066
S1130B0006C20CC0833009F45FC0843009F0FFC111
S1130B10F5C110920302109202020895809103021B
S1130B20811118C08091020281112AC08FEF809335
S1130B3001011092000184E0809304018093030179
S1130B4083E080931E018093160110920302109299
S1130B500202089581E0809301011092000184E073
S1130B608093040182E08093030183E080931E015B
S1130B7080931601809105028F5F8093050208958A
S1130B808FEF809301011092000184E080930401AF
S1130B9085E08093030183E080931E018093160116
S1130BA0809104028F5F80930402089510920302DF
S1130BB0109202028091F4019091F50101969093B4
S1130BC0F5018093F40108951092F5011092F40157
S1130BD02091000180910401820F809304013091DF
S1130BE0030190910101930F909303013FEF380F9C
S1130BF0363018F0219520930001923008F0BFC0E0
S1130C0081110AC080911E01811181C181E080930C
S1130C100101809300010895813099F480911E01AF
S1130C20811106C081E080930101109200010895B2
S1130C30813009F06CC1809301018FEF8093000132
S1130C4008958230D9F480911E01811106C081E09B
S1130C5080930101809300010895813029F48093E9
S1130C600101109200010895823009F050C181E021
S1130C70809301018FEF8093000108958330D9F4AC
S1130C8080911E01813029F4809301018093000139
S1130C900895823031F481E08093010110920001C3
S1130CA00895833009F033C181E0809301018FEF0F
S1130CB08093000108958430E1F480911E01823014
S1130CC031F481E080930101809300010895833021
S1130CD031F481E080930101109200010895843081
S1130CE009F015C181E0809301018FEF8093000129
S1130CF008958530E1F480911E01833031F481E060
S1130D0080930101809300010895843031F481E0DF
S1130D1080930101109200010895853009F0F7C015
S1130D2081E0809301018FEF809300010895863064
S1130D30A1F480911E01843031F481E0809301019B
S1130D40109200010895853009F0E1C081E080939C
S1130D5001018FEF809300010895873061F4809141
S1130D601E01853009F0D3C081E0809301018FEF2B
S1130D7080930001089581E08093020208959630E3
S1130D8008F4C5C081110AC0809116018111BFC049
S1130D908FEF80930101809300010895813099F4CD
S1130DA080911601811106C08FEF8093010110928A
S1130DB000010895813009F0AAC08FEF80930101EA
S1130DC08093000108958230E1F48091160181112D
S1130DD007C08FEF8093010181E0809300010895A3
S1130DE0813031F48FEF8093010110920001089556
S1130DF0823009F08CC08FEF809301018093000151
S1130E0008958330E1F480911601813039F48FEF35
S1130E108093010181E0809300010895823031F4D0
S1130E208FEF80930101109200010895833009F03F
S1130E306EC08FEF80930101809300010895843088
S1130E40E1F480911601823039F48FEF809301012F
S1130E5081E0809300010895833031F48FEF809313
S1130E600101109200010895843009F050C08FEF01
S1130E70809301018093000108958530D9F4809115
S1130E801601833039F48FEF8093010181E0809360
S1130E9000010895843031F48FEF809301011092A2
S1130EA000010895853099F58FEF809301018093B7
S1130EB000010895863091F480911601843031F454
S1130EC08FEF809301011092000108958530F9F4A9
S1130ED08FEF80930101809300010895873051F4CE
S1130EE080911601853099F48FEF809301018093EE
S1130EF00001089581E08093030208958091F60132
S1130F009091F70101969093F7018093F60108956B
S1130F108FEF81B912B884B915B887B918B880EEC3
S1130F208AB98FE18BB917D947D968EE73E080E0AD
S1130F3090E0B5D954D980E090E02FD0019629F4FF
S1130F4060E070E080E090E02DD085E090E025D076
S1130F50019629F460E070E085E090E023D083E01E
S1130F6090E01BD0019629F460E070E083E090E00B
S1130F7019D089B1809580931202A2D944DBCDDBCC
S1130F8042DCC4DC43DDF5CFEE0FFF1F0024001C60
S1130F900BBE0790F691E02D0994A8E1B0E042E081
S1130FA050E005C012D0272F11C0DC01CB01FC0199
S1130FB0F999FECF06C0F2BDE1BDF89A319600B4AE
S1130FC00D9241505040B8F70895262FF999FECF5D
S1130FD01FBA92BD81BD20BD0FB6F894FA9AF99A52
S10D0FE00FBE01960895F894FFCFA8
S1130FEAFFFF030303FEFDFBF7EFDFBF7F010204EC
S1130FFA08102040807F04070E1C3870E0FE0407A6
S113100A0E1C3870E001000000506C61793A2031FE
S113101A50206F7220325020205265636F726473BD
S113102A3A00446966666963756C74793A202020CB
S113103A2020313D456173792020323D4861726434
S113104A0053636F72653A2020202020202020203C
S113105A2050313A302020202020202050323A30AB
S113106A002020202050312057494E53212020208F
S113107A202020204752454154204A4F4221002033
S113108A20202050322057494E532120202020204E
S113109A20204752454154204A4F42210020202013
S11310AA205245434F5244533A20202020232050B3
S11310BA6C617965643A2030005750313A20302007
S11310CA20205750323A203020202020202020454A
S10710DA4E4400007C
S9030000FC
